:100000000A308A00322A00000A108A100A11820778
:1000100028340C340134063443344E340034003474
:1000200000340034543432340034003400340034AA
:100030005434333400340034003400345434343411
:100040000034003400340034543435340034003487
:100050000034003454343634003400340034003476
:100060005434373400344300C6204E1D4F2720003F
:10007000C6204E1D4F234600A13084008317000880
:10008000031950280130F800F701F70B4528F80B49
:1000900044284A30F700F70B4B284E28800B4228A3
:1000A00008008316031728185B288312031306120F
:1000B0005E2883160317831203130616831606128F
:1000C0000317A81869288312031386126C28831655
:1000D0000317831203138616831686120317281933
:1000E00077288312031306137A28831603178312C3
:1000F00003130617831606130317A81985288312FE
:100100000313861388288316031783120313861795
:100110008316861300008312861583168611902895
:100120008312861183168611831208008316031723
:10013000A9010313061600308312061A0130831634
:100140000317A9040313861600308312861A0130A0
:10015000F7000310F70D770883160317A90403139C
:10016000061700308312061B0130F700F70DF70D5C
:10017000FC30F705770883160317A90403138617C5
:1001800000308312861B0130F700F70DF70DF70DD5
:10019000F830F705770883160317A9042908F80033
:1001A000831203130800861083168610061686161F
:1001B0000617861783120615831606110000831290
:1001C0008615831686110000831296207808831600
:1001D0000317A800831203138611831686110000EB
:1001E00083128615831686110000831296207808E4
:1001F00083160317A7008312031386118316861133
:1002000006128612061386130317280EF700F03025
:10021000F70577082704F8007808A700A71F122918
:100220000313D628A508031D1B2983120313861068
:100230001E29831603178312031386148316861050
:100240000000831206118316061100008312861126
:10025000831686110317260EA7000F30A70527085F
:10026000A8008312031351208316031726080F39A1
:10027000A700A8008312031351200800831606125A
:1002800086120613861386118610061183128610B5
:1002900083168610831206118316061183128611A7
:1002A000831686110F300317A100831203133C201D
:1002B0000130831603179A001A08033C031C7029A7
:1002C0000330A8008312031351200530831603174F
:1002D000A100831203133C20831603179A0A5C299A
:1002E0000230A800831203135120831603179A01CA
:1002F0001A08033C031C8D291A08831203130420D7
:10030000831603179B00A5011B08A6008312031385
:10031000D320831603179A0A7829031383128A15A8
:100320000A12222B83160317220B9829A301AC294A
:100330002208023C031D9F294030A300AC2922085B
:10034000033C031DA6291430A300AC292208043C59
:10035000031DAC295430A30001302102A307230858
:100360008038A400A5012408A60083120313D3201B
:1003700008008316031720080C3A8312031303198D
:10038000C829063A0319D829023A0319E229EB29A8
:1003900083160317A5010130A60083120313D3208F
:1003A000023083160317A100831203133C20F429A3
:1003B000013083160317A1000230A2008312031339
:1003C0009221F42983160317A5011030A600831289
:1003D0000313D320F429013083160317A500200846
:1003E000A60083120313D320080094138C118316E4
:1003F000031720088312031393000230941B072A6B
:100400008C1D002A00308316111B01308312F80066
:10041000080014138316911591190C2A771891125C
:10042000771C91161116111A132A83121308F8005B
:1004300008008316111411181B2AD0300317A000CE
:1004400083120313F521780B2B2A8316911491182C
:10045000272A1D2A8312831603171A08A000831265
:100460000313F521831691149118342AD130031700
:10047000A00083120313F521831603171B088400C1
:1004800083131C1883170130F7008312031309220A
:10049000780880000130831603179E001D081E0295
:1004A0000318632A1E081B07840083131C18831774
:1004B0000130F700831203130922780880008316A5
:1004C00003179E0A4E2AF7018312031309227808A4
:1004D000831603179F000313111511196D2A831238
:1004E0000800F701F801831603171C0803101D18F4
:1004F000F707F70CF80C9D18F707F70CF80C1D1907
:10050000F707F70CF80C9D19F707F70CF80C1D1AF4
:10051000F707F70CF80C9D1AF707F70CF80C1D1BE2
:10052000F707F70CF80C9D1BF707F70CF80C831274
:1005300003130800831603179A019C0121309B00C6
:1005400003309D008312031319222108A5002508FA
:100550007F39F700F70E0F30F7057708831603177A
:100560009B009C000A309D008312031371227808BF
:10057000831603179A008312031325080F39831675
:1005800003171A0783120313A1002208A500250EE2
:10059000F7000F30F7057708831603179B009C00C0
:1005A0000A309D0083120313712278088316031703
:1005B0009A008312031325080F39831603171A07AD
:1005C00083120313A200231F0C2BA31EEA2A01305F
:1005D000A400EB2AA4012308A50025081F39F70071
:1005E000F70E0F30F7057708831603179B009C0062
:1005F0000A309D00831203137122780883160317B3
:100600009A008312031325080F39831603171A075C
:1006100083120313A3002C2B2308A500250EF7003B
:100620000F30F7057708831603179B009C000A30EC
:100630009D008312031371227808831603179A0012
:100640008312031325080F39831603171A07831221
:100650000313A3000230A4002130F8000030F90099
:100660008A150A122E2B0330831603179A009C0159
:1006700021309B0004309D008312031319222208AD
:10068000A500250EF7000F30F7057708831603172E
:100690009B009C000A309D0083120313712278088E
:1006A000831603179A008312031325080F39831644
:1006B00003171A0783120313A2002308A500250EAF
:1006C000F7000F30F7057708831603179B009C008F
:1006D0000A309D00831203137122780883160317D2
:1006E0009A008312031325080F39831603171A077C
:1006F00083120313A3002408A500250EF7000F3072
:10070000F7057708831603179B009C000A309D00AD
:100710008312031371227808831603179A00831239
:10072000031325080F39831603171A0783120313BF
:10073000A4002130F8000030F9008A150A12502B6D
:100740008E30F700831603171B08F8001A08F9000B
:10075000FA01F808031DB62B7908F800F9010830F2
:10076000F702F808031DB62BF701BE2B0310F81B88
:10077000BD2BF90DF80DF703B62BF81383120313F5
:100780000800831603171B08A2001F08A206A21F59
:10079000CE2B031103109B1B0314012C1B08A2007A
:1007A0001E08A3001A08A3020319DC2BA21F012CA8
:1007B0000308013A8300012C1F08A3001B08A302B1
:1007C0000319E82BA21F012C0308013A8300012C16
:1007D0002008A3001C08A3020319F42BA21F012C5C
:1007E0000308013A8300012C2108A3001D08A3027D
:1007F0000319002CA21F012C0308013A8300012CCD
:1008000003108312031308000830F8001F08C739CB
:1008100078049F001F151F190B2C1E08FA00831661
:100820001E0803179A007A089B0083120313A02363
:100830007A08AD007908AC007808AB007708AA0008
:10084000831603179D0180309C0068309B00883020
:100850009A00831203132D0883160317A100831235
:1008600003132C0883160317A000831203132B080D
:10087000831603179F00831203132A088316031796
:100880009E0083120313C123031C5B2C0F308316BD
:100890000317A1000130A20083120313922130300C
:1008A00083160317A00083120313B921831689103E
:1008B00083128914932C2D08831603179D0083122D
:1008C00003132C08831603179C00831203132B08B1
:1008D000831603179B00831203132A08831603173A
:1008E0009A00A1018030A00068309F0088309E00EF
:1008F00083120313C12303187F2C031D932C0F3085
:1009000083160317A1000130A20083120313922162
:10091000463083160317A00083120313B9218316F0
:100920008910831289108A150A12772B83160317F0
:100930002108F80120020318A02C2008F700AC2C95
:10094000F7010830A200A00DF70D21087702031867
:10095000F700F80DA20BA32C8312031308007808EC
:10096000831603171B08A0006430A1008312031331
:1009700096247708831603179B0078083030031DF0
:10098000C82C9C1CD32C9C19D32C1C1A2030CB2C8B
:100990009C111C121C14F8077808A0008312031382
:1009A000B921831603171B08A0000A30A100831287
:1009B000031396247708831603179B0078083030BA
:1009C000031DE82C9C19F02C1C1CF02C1C1A203048
:1009D000F8077808A00083120313B92183160317C0
:1009E00030309B071B08A00083120313B9210800B5
:1009F0000B08831603179B00831203138B138316B4
:100A000003178C170C14000000009B1F0C2D831281
:100A100003138B178316031783128C0803192D2DCC
:100A20000D0883169B0083120F0883169C00831207
:100A30000C088316A00083120313B9218316031731
:100A40001B0883128D0083161C0883128F008D0AE9
:100A500003198F0A0313F82C031703138A150A12BC
:100A6000DF2B831603171E080319F82DAA0022088E
:100A70000319F82DAA02031C422D7F30AA07031880
:100A8000F82D482D8130AA02031CF82D0319F82DEA
:100A90002A08F700F801F901FA01A9011F08A800C6
:100AA000A8172008A7002108A6001930AA002508C9
:100AB000A60203186B2D0130A70203186B2DA802A4
:100AC00003186B2DA90203186B2DA90AA80AA70AFF
:100AD0002508A6079D2D2408A7020318862D01309E
:100AE000A8020318862DA9020318862DA90AA80AB0
:100AF0002408A7072508A607031C9D2DA70A031D88
:100B00009D2DA80A031D9D2DA90A9D2D230880381F
:100B1000A80203189C2D0130A90203189C2DA90AD4
:100B200023088038A8072408A707031C7A2DA80AE1
:100B3000031D7A2DA90A7A2D7A14AA0BA02DAB2DAC
:100B40000310A60DA70DA80DA90D0310FA0DF90DA0
:100B5000F80DAB0D572D2B1CB32D0310F80CF90C11
:100B6000FA0CAB0CB62DF7030319F82DAB1BDF2DD8
:100B70000310A60DA70DA80DA90D2508A6020318A0
:100B8000CB2D0130A7020318CB2DA8020318CB2DC3
:100B9000A902031CEE2D2408A7020318D62D01304C
:100BA000A8020318D62DA902031CEE2D23088038B5
:100BB000A8020318DF2D0130A902031CEE2DFA0A4A
:100BC000031DEE2DF90A031DEE2DF80A031DEE2D6F
:100BD000F70A0319F82DF80CF90CFA0C1F08AA00F3
:100BE0002308AA06AA1FF62DF817FC2DF813FC2DD2
:100BF000F701F801F901FA018312031308000B0849
:100C0000831603179A00831203138B13831603179B
:100C10008C170C14000000009A1F132E831203136C
:100C20008B178316031783120C087F390319692E5B
:100C300083169A0083120D0883169B0083120F08F7
:100C400083169C001A08A00083120313B92183168F
:100C500003171B0883128D0083161C0883128F0054
:100C600003130B08831603179D00831203138B13C2
:100C7000831603178C170C14000000009D1F452ECF
:100C8000831203138B178316031783120C0D0E0D9B
:100C90007F390319692E83169A0083120D08831673
:100CA0009B0083120F0883169C001A08A000831271
:100CB0000313B921831603171B0883128D008316B3
:100CC0001C0883128F008D0A03198F0A0313FF2D4E
:100CD0000317031308002030831603171B1E303040
:100CE0009C001A08F7009A1F7D2EF709F70A77086B
:100CF0009A002D309C009B171B141A08A00064302A
:100D0000A1008312031396247708831603179A0011
:100D1000303078079D001A08A0000A30A100831225
:100D20000313962430307707831603179F00303063
:100D300078079E001C08F70030301D020319A42E0E
:100D40009B149B1B1B15B82E1C089D0020309C007B
:100D500030301E020319B02E1B149B1B9B14B82E9F
:100D6000031D1B14031DB82E1D089E0020309D007E
:100D70001B19BF2E9B18C62E1B18CD2ED42E1C0857
:100D8000A00083120313B921831603171D08A000C6
:100D900083120313B921831603171E08A0008312C0
:100DA0000313B921831603171F08A000831203132E
:080DB000B9218A150A121E2C5C
:101000000030F8001F08C73978049F00A901A80123
:10101000A701A601AE012E08643C031C8A291F15F6
:101020001F1910281E08FA0083161E0803179A00BD
:101030007A089B008A1183120313A0238A15831058
:101040002908831603179D008312031328088316AB
:1010500003179C00831203132708831603179B00B2
:10106000831203132608831603179A007A08A10037
:101070007908A00078089F0077089E0080308318C8
:101080009F06A401A5011B08A3001F08A3061A08B8
:1010900003192E29A200F7001E0803193729A202FE
:1010A0000319D328031C91281F08A800A81720089B
:1010B000A7002108A600A5010310A80CA70CA60CE8
:1010C000A50CA20B5B28A31F682824144B2924100D
:1010D000221024169D308400831760292412A31B3C
:1010E0007B28221C8628A80CA70CA60CA50CF70AA6
:1010F000031946298628A81B89280310A50DA60DCB
:10110000A70DA80DF703031946297B282417F328F8
:1011100024131B08A300A31F8F28A8173F29A81377
:101120003F291E08A200F7001A08A2021B08A80007
:10113000A8171C08A7001D08A600A5010310A80CED
:10114000A70CA60CA50CA20B9D28A31FAA28A414CB
:101150004B29A4102210A416A13084008317602903
:10116000A412A31BBD28221CC828A80CA70CA60CDF
:10117000A50CF70A03194629C828A81BCB28031079
:10118000A50DA60DA70DA80DF70303194629BD2827
:10119000A417F328A4131F08A300A31FD128A8177E
:1011A0003F29A8133F291F08A800A8172008A70057
:1011B0002108A600A31FE028A81324154B292411F9
:1011C000A50122109D30840083176029A31B0929E3
:1011D0001B08A300221CF328A80CA70CA60CA50C26
:1011E000F70A03194629A51F0429A60A031D042985
:1011F000A70A031D0429A80A031D0429A80CA70C8B
:10120000A60CF70A03194629241B8828A41BCA2800
:1012100028298030A806A81F11294B291F08A300E0
:101220001E291B08A300A808031D1E29A708031DCB
:101230001E29A608031D1E29F7013F29A81B2829DE
:101240000310A50DA60DA70DA80DF70B1E29462905
:10125000A31F2C29A8173F29A8133F291E08F70010
:101260001F08A8002008A7002108A6003F291A0887
:10127000F7001B08A8001C08A7001D08A6002808E6
:10128000F8002708F9002608FA007E29F701F8017E
:10129000F901FA017E29A501A609A709A809A5094E
:1012A000A50A031D5929A60A031D5929A70A0319CE
:1012B000A80A24186728A418A9282419DF280E29A9
:1012C0000008A607031C6A29A70A031D6A29A80AA1
:1012D0000319221484030008A707031C7229A80A13
:1012E0000319221484030008801F803AA8070318FA
:1012F0002214241A6E28A41AB028E6287A08831229
:101300000313A9007908A8007808A7007708A600A9
:10131000AE0A0B28290883160317A10083120313B2
:10132000280883160317A0008312031327088316C7
:1013300003179F00831203132608831603179E00CA
:10134000A501A4014830A3008530A2008A118312B0
:10135000031331258A157A08831603179D0079082F
:101360009C0078089B0077089A001D08A1001C08C3
:10137000A0001B089F001A089E00AA30A500F130AB
:10138000A4000230A3008030A2008A11831203134C
:1013900031258A157A08831603179D0079089C0069
:1013A00078089B0077089A008E30F7001A08F70239
:1013B0001B08F9001C08F800F917F7080319EB29B6
:1013C0000310F908031DE729F8080319EB29F90CA4
:1013D000F80CF70BE0299B1FF229F809F909F80A24
:1013E0000319F90A780883120313AF002F081A3C77
:1013F0000318132A0A3083160317A1000230A20033
:101400008A118312031392218A15343003178D0039
:1014100000308F008A110313FF258A1583160910E7
:10142000831209142F2A2F08183C031C2F2A0A3074
:1014300083160317A1000230A2008A11831203133E
:1014400092218A15383003178D0000308F008A11E1
:101450000313FF258A1583160910831209108A15B4
:101460000A12092C03081F398300FF30A000A015C1
:101470002008831687008312201620088316870011
:1014800002309300283083129400831694171413AB
:101490001F149F141F159F1107309C008313763073
:1014A0008312031790001B3091009730920009308F
:1014B0009300373094001A30950058309600103061
:1014C0009700793098001A3099009A309A001030BD
:1014D0009B00BB309C0018309D00DD309E001A3010
:1014E0009F000130A0001130A1002130A2001B306C
:1014F000A3004230A4001130A5006330A6001B30C9
:10150000A7008430A8001B30A9002530AA00AB0139
:101510004430AC001A30AD006530AE001030AF0082
:101520008630B0001A30B100A730B2001030B300DE
:10153000C830B4001830B500CA30B6001A30B70051
:10154000EB30B8001030B9000C30BA001B30BB00D3
:101550002D30BC001130BD004E30BE001B30BF002E
:101560006F30C0001B30C1009030C2000330C30098
:101570002E30C4001830C5005030C6001230C700ED
:101580007030C8001830C9009230CA001230CB0049
:10159000B230CC001830CD00D430CE001830CF009F
:1015A000F630D0001230D1001630D2001930D300FE
:1015B0003830D4001130D5005930D6001B30D70058
:1015C0007A30D8001B30D9009B30DA000330DB00C2
:1015D0003930DC001830DD005B30DE001230DF0017
:1015E0007B30E0001A30E1009C30E2001030E30074
:1015F000BD30E4001A30E500E130E6001830E700C5
:101600000330E8001330E9002330EA001930EB0022
:101610004530EC001130ED006630EE001B30EF007D
:10162000831603131F1383121F139F1783169F170D
:1016300083121F1483161F109F101F119F118A11F0
:1016400083123E298A150C3083160317A0008A11D5
:1016500083120313B9218A158A119A2A8A157908E7
:101660008316031791007808900002301007840059
:1016700083131118831700089400013010078400A9
:101680008313111883170008950010088400831332
:1016900011188317000896008A1183120313332B45
:1016A0008A157908831603179300780892001208A8
:1016B0008400831313188317000899000130120760
:1016C0008400831313188317000897000230120751
:1016D0008400831313188317000898003230A10088
:1016E0008A11831203133C208A158A11042C8A154F
:1016F000013083160317A100A2008A11831203137D
:1017000092218A158316031714089B0001309C0050
:101710008A1183120313AF248A153A3083160317F4
:10172000A0008A1183120313B9218A1583160317A7
:1017300015089B0001309C008A1183120313AF240B
:101740008A153A3083160317A0008A1183120313F7
:10175000B9218A158316031716089B0001309C00D7
:101760008A1183120313AF248A15013083160317DD
:10177000A1000230A2008A118312031392218A155C
:1017800001308316031719029B009C0006309D0050
:101790008A118312031371228A157808831603179E
:1017A0009A000C3083128D0000308F0083161A08C7
:1017B00083128D0703188F0A8A110313F82C8A15D8
:1017C0002D3083160317A0008A1183120313B92149
:1017D0008A158316031717089B0001309C008A1195
:1017E00083120313AF248A152D3083160317A0002C
:1017F0008A1183120313B9218A1583160317180857
:101800009B0001309C008A1183120313AF248A15B8
:1018100000280A3083160317A1000130A2008A11A4
:101820008312031392218A152F08831603179A0037
:1018300018309B008A11831203136B2E8A15DF3038
:1018400083160317A0008A1183120313B9218A1586
:10185000333003178D0000308F008A110313FF25EA
:101860008A15323083160317A1008A1183120313DD
:081870003C208A152C2B6300BB
:02400E00313F40
:00000001FF
;PIC16F877A
;CRC=FBCA  CREATED="12-Mar-21 11:35"
